:100000000C9483050C94AB050C94AB050C94AB05D8
:100010000C94AB050C94AB050C94AB050C94AB05A0
:100020000C94AB050C94AB050C94EA090C945C0A97
:100030000C94AB050C94AB050C94AB050C94AB0580
:100040000C94AB050C94AB050C94AB050C94AB0570
:100050000C94AB050C94AB050C94AB050C941F07EA
:100060000C94AB050C94AB050C94AB050C94AB0550
:100070000C94AB050C94AB050C94AB050C94AB0540
:100080000C94AB050C94AB050C94AB050C94AB0530
:100090000C94AB050C94AB050C94AB050C94AB0520
:1000A0000C94AB050C94AB050C94AB05110E280E0B
:1000B0003F0E760EB50E2C0FBD0FBD0FBD0FBD0F41
:1000C000BD0FBD0F131520B8B82020202060606040
:1000D00060BE67BE606038380080BFBF80808080AF
:1000E000C4CECACABBCABBCACA8E8E0400030300F0
:1000F000000000000000000F1C0F000003030017A9
:100100001BF0F0C0C0C0C0C0C0C0C0C0C0FEFEC7B1
:10011000FEFEC0C000F0F000FEFF00000000002165
:1001200021F9D9D9DEDED9DEDED9D9F8F8F8207B7D
:100130007F18181818181C1C1C1C1CFBFB1CFBFB34
:100140001C1C007878000000000000000000000087
:10015000000003030703030000000000001C26004A
:10016000000000000000000000000000FEFE0F0F75
:10017000FEFEFE00000000C0C0C000070707070722
:10018000071F1F9F9F9F9F9FE7E79F9FE7E7E79FAF
:100190009F8080878787000000000000000C0C7F94
:1001A0007F737373F3F37373F3F3F373737F7F7F6F
:1001B0007F7F0C3838383838383E3E3E3E3E3E3E33
:1001C000F9F93E3EF9F9F93E3E0000F8F8F8000072
:1001D0000000000000000000000000001F1F3C3C69
:1001E0001F1F1F0000000000000000202D00000065
:1001F0000000000000000000000000FCFC1F1F1FAA
:10020000FCFCFC000000000000000000001C1C1CA6
:100210001C1C1CFCFCFCFCFCFCFCFC1F1FFCFCFC78
:100220001F1F1FFCFC0000001F1F1F00000000001C
:10023000000000E0E0FCFCFC1C1C1C1F1F1C1C1C24
:100240001F1F1F1C1CFCFCFCFCFCFCE0E000000071
:10025000000000E0E0E7E7E7E7E7E71F1FE7E7E781
:100260001F1F1FE7E7070707070707000007070724
:100270000707070707070707070707FFFF0707071E
:10028000FFFFFF07070000001F1F1F000000000006
:10029000000000000000000000000007071F1F1FF3
:1002A00007070700000000000000000000264000D3
:1002B0000000000000000000000000000000C0C0BE
:1002C000C0F8F8F8C0C0C0C0000000000000000086
:1002D000000000000000000000000000000000001E
:1002E00000000000FFFFFF010101FFFFFFFF000012
:1002F0000000000000E0E0E00000000F0F0F0F7FA3
:100300007F7F7F7F7F7F7F7F7F7F8F8F8F7F7F7FCD
:100310008F8F8F8F7F7F7F000000000F0F0F0000F7
:100320000000000000C0C0C0FCFCFCFC3C3C3C3CAD
:100330003F3F3F3C3C3C3F3F3F3F3C3C3CFCFCFCA8
:10034000FCFCFCFCC0C0C0000000000303033F3FF6
:100350003F3F3C3C3C3CFCFCFC3C3C3CFCFCFCFC97
:100360003C3C3C3F3F3F3F3F3F3F030303F0F0F047
:10037000F0FEFEFEFEFEFEFEFEFEFEFEF1F1F1FED2
:10038000FEFEF1F1F1F1FEFEFE00000000F0F0F0E3
:10039000000000000000000000000000000000005D
:1003A0000000FFFFFF808080FFFFFFFF00000000D4
:1003B0000000000707070000000000000000000028
:1003C00000000000000000000303031F1F1F0303C1
:1003D00003030000000000000000000000000030E7
:1003E00040000000000000000000000000000000CD
:1003F00000FFFFFFFF0101010101FFFFFFFFFF0001
:100400000000000000000000C0C0C0C0C00000002C
:10041000007C7CFCFCFCFCFCFCFCFCFCFCFCFCFC18
:10042000FC7F7F7F7FFCFCFCFCFC7F7F7F7F7FFC71
:10043000FCFCFC00000000007F7F7F7F7F0000004D
:100440000000000707070707070707070707070751
:1004500007F8F8F8F80707070707F8F8F8F8F807B3
:100460000707070000000000000000000000000077
:10047000000000E0E0E0E0FFFFFFFFFF1F1F1F1F85
:100480001F1F1F1F1F1F1F1F1F1F1F1F1F1F1F1F7C
:100490001F1F1FFFFFFFFFFFFFFFFFFFFFE0E0E069
:1004A000E00000030303037F7F7F7F7F7C7C7C7CF5
:1004B0007CFCFCFCFC7C7C7C7C7CFCFCFCFCFC7CFC
:1004C0007C7C7C7F7F7F7F7F7F7F7F7F7F030303B9
:1004D000030000F0F0F0F0F0F0F0F0F0F0F0F0F0E9
:1004E000F00F0F0F0FF0F0F0F0F00F0F0F0F0FF0F5
:1004F000F0F0F0000000000000000000000000002C
:10050000001F1F1F1F1F1F1F1F1F1F1F1F1F1F1F1A
:100510001FFFFFFFFF1F1F1F1F1FFFFFFFFFFF1F0B
:100520001F1F1F0000000000FFFFFFFFFF00000073
:1005300000000000000000000000000000000000BB
:1005400000FFFFFFFFC0C0C0C0C0FFFFFFFFFF00F4
:100550000000000000000000010101010100000096
:100560000000000000003E5B4F5B3E3E6B4F6B3E69
:100570001C3E7C3E1C183C7E3C181C577D571C1CA6
:100580005E7F5E1C00183C1800FFE7C3E7FF001801
:10059000241800FFE7DBE7FF30483A060E262979EA
:1005A0002926407F050507407F05253F5A3CE73C4B
:1005B0005A7F3E1C1C08081C1C3E7F14227F2214FC
:1005C0005F5F005F5F06097F017F006689956A6053
:1005D0006060606094A2FFA29408047E040810206A
:1005E0007E201008082A1C08081C2A08081E101063
:1005F00010100C1E0C1E0C30383E3830060E3E0E0D
:1006000006000000000000005F0000000700070077
:10061000147F147F14242A7F2A122313086462365D
:10062000495620500008070300001C2241000041E9
:10063000221C002A1C7F1C2A08083E080800807023
:100640003000080808080800006060002010080456
:10065000023E5149453E00427F40007249494946A9
:100660002141494D331814127F1027454545393C27
:100670004A49493141211109073649494936464914
:1006800049291E0000140000004034000000081436
:1006900022411414141414004122140802015909AF
:1006A000063E415D594E7C1211127C7F4949493604
:1006B0003E414141227F4141413E7F494949417F7D
:1006C000090909013E414151737F0808087F004133
:1006D0007F41002040413F017F081422417F40407C
:1006E00040407F021C027F7F0408107F3E41414151
:1006F0003E7F090909063E4151215E7F09192946BD
:10070000264949493203017F01033F4040403F1FD2
:100710002040201F3F4038403F6314081463030407
:100720007804036159494D43007F41414102040867
:100730001020004141417F0402010204404040403A
:1007400040000307080020545478407F2844443870
:100750003844444428384444287F385454541800BA
:10076000087E090218A4A49C787F08040478004439
:100770007D40002040403D007F1028440000417F24
:1007800040007C047804787C0804047838444444AD
:1007900038FC1824241818242418FC7C08040408A5
:1007A000485454542404043F44243C4040207C1CBE
:1007B0002040201C3C4030403C44281028444C90B1
:1007C00090907C4464544C4400083641000000770B
:1007D0000000004136080002010204023C262326E4
:1007E0003C1EA1A161123A4040207A385454555918
:1007F0002155557941215454784121555478402050
:10080000545579400C1E5272123955555559395468
:1008100054545939555454580000457C4100024500
:100820007D420001457C40F0292429F0F02825284C
:10083000F07C545545002054547C547C0A097F496F
:1008400032494949323248484832324A4848303AB7
:100850004141217A3A42402078009DA0A07D394450
:100860004444393D4040403D3C24FF2424487E49D7
:1008700043662B2FFC2F2BFF0929F620C0887E0909
:100880000320545479410000447D413048484A32A5
:10089000384040227A007A0A0A727D0D19317D268D
:1008A00029292F28262929292630484D4020380873
:1008B00008080808080808382F10C8ACBA2F1028F4
:1008C00034FA00007B000008142A142222142A148F
:1008D000089500220095AA005500AAAA55AA55AA73
:1008E000000000FF00101010FF00141414FF00108F
:1008F00010FF00FF1010F010F0141414FC0014147A
:10090000F700FF0000FF00FF1414F404FC14141798
:10091000101F10101F101F1414141F00101010F0BF
:10092000000000001F101010101F10101010F01009
:10093000000000FF101010101010101010FF100019
:100940000000FF140000FF00FF00001F1017000050
:10095000FC04F414141710171414F404F40000FF2A
:1009600000F714141414141414F700F714141417C3
:100970001410101F101F141414F4141010F010F0A1
:1009800000001F101F0000001F14000000FC1400D6
:1009900000F010F01010FF10FF141414FF141010CA
:1009A000101F00000000F010FFFFFFFFFFF0F0F04D
:1009B000F0F0FFFFFF0000000000FFFF0F0F0F0F20
:1009C0000F38444438447C2A2A3E147E020206062C
:1009D000027E027E0263554941633844443C044030
:1009E0007E201E2006027E020299A5E7A5991C2AF8
:1009F000492A1C4C7201724C304A4D4D30304878B7
:100A00004830BC625A463D3E494949007E010101D9
:100A10007E2A2A2A2A2A44445F444440514A4440B8
:100A200040444A51400000FF0103E080FF000008FD
:100A3000086B6B083612362436060F090F060000C5
:100A400018180000001010003040FF0101001F01C5
:100A5000011E00191D1712003C3C3C3C0000000028
:100A6000000102040810204080D5F08D14A1C88137
:100A7000CFD9F1AF2000DF03AD02EB015D01FF0034
:100A8000C40000000000000A000F00140117080B4A
:100A90000002020201000904000001020200000538
:100AA0002400100105240101010424020605240686
:100AB00000010705810310004009040100020A003B
:100AC0000000070502024000000705830240000005
:100AD0000403090412010002EF02014041233680A1
:100AE00000010102030141726475696E6F204C4C74
:100AF000430041726475696E6F204C656F6E617260
:100B0000646F0000A41011241FBECFEFDAE0DEBF37
:100B1000CDBF11E0A0E0B1E0E8E1F2E202C0059053
:100B20000D92AA33B107D9F725E0AAE3B1E001C0DD
:100B30001D92A43CB207E1F715E0C3E8D5E004C07C
:100B40002197FE010E94FF10C238D107C9F70E9409
:100B5000990C0C940A110C940000CF92DF92EF9242
:100B6000FF920F931F93CF93DF936C017A018B0158
:100B7000C0E0D0E0CE15DF0589F0D8016D918D0180
:100B8000D601ED91FC910190F081E02DC60109950F
:100B9000892B11F47E0102C02196ECCFC701DF91B1
:100BA000CF911F910F91FF90EF90DF90CF9008951C
:100BB0008FB18095807F669B88601C9B84600895C0
:100BC0000895089580E090E00895AFE3B1E02FB775
:100BD000F8947D918D919C9166B52FBFA89B05C01F
:100BE0006F3F18F47F5F8F4F9F4F22E0660F771F94
:100BF000881F991F2A95D1F708950E940511E1E6F3
:100C0000FAE090E1969FD001A0781124A80F6770B8
:100C1000E60FF11D9491A45BBE4F442319F08C9113
:100C2000982B03C090958C9198239C9308952F92B4
:100C30003F924F925F926F927F928F929F92AF926C
:100C4000BF92CF92DF92EF92FF920F931F93CF93B9
:100C5000DF93CDB7DEB727970FB6F894DEBF0FBE90
:100C6000CDBFFC016A3069F425898189928938E019
:100C7000239F800D911D1124928B818B108A1786E2
:100C8000A6C06D3009F4A3C09F838E833588248964
:100C9000298333893A8361887288E784F08880E801
:100CA000E816F104C4F0AE81BF8155962C9155979A
:100CB000422F50E01F968D919C915097B6E02B9F4C
:100CC000800D911D1124EE81FF81908B87872689ED
:100CD000211167C07CC0F0E46F16710424F7C701CE
:100CE00025E0329E800D911D112418161906DCF6A0
:100CF000432C512CC30138E0339E800D911D1124EB
:100D00001816190684F685E0689F800111240F5992
:100D10001A4F20E0F8012490253009F4212C4301DA
:100D200058E020FC02C0398101C03A8131110BC06A
:100D3000F9818A81F81307C026945150840C951CC0
:100D40005111EFCF25C067018C2D8E198315A0F7A7
:100D500054018A2D88198315B8F490E8C916D10476
:100D600078F4A0E4AA16B10458F4432FB501C601E3
:100D70002C833B835D830E94FF055D813B812C8139
:100D8000BFEFAB1ABB0AE5CFEFEFCE1ADE0ADCCF1E
:100D90002F5FE40CF51C0F5F1F4F263009F0BACF10
:100DA00082CF6AEF64039001659F300D11242058B3
:100DB0003F4F281739075CF4AE81BF81ED91FC915C
:100DC00011970190F081E02D6AE0CD01099581E055
:100DD00090E027960FB6F894DEBF0FBECDBFDF912F
:100DE000CF911F910F91FF90EF90DF90CF90BF9028
:100DF000AF909F908F907F906F905F904F903F90BB
:100E00002F900895AB01FC010E94E5054150510966
:100E1000E109F10928F068517C4F8F4F9F4FF6CFC1
:100E2000AB01FC010E94E505641775078E079F075B
:100E3000C8F30895BC0180E090E00C9402070F9382
:100E40000FB70F931F9211248F939F93EF93FF93EC
:100E5000E3E4F1E080913E0191E08D5F8D3710F089
:100E60008D57939580933E018081890F8083918176
:100E7000911D91830281011D02838381811D8383E2
:100E800009270F700927029500933D0135D0811184
:100E900000933B01803989F400913C01901B96300E
:100EA00070F087E7809300088093010888E198E05C
:100EB0008093600090936000FFCF90933C018091FD
:100EC0003A01815018F080933A0159F3EFE3F1E0D1
:100ED0008081918101968083918382819381811D9C
:100EE000911D82839383FF91EF919F918F911F902A
:100EF0000F910FBF0F9118958FB18095807F669BE2
:100F000088601C9B84600895FC0180914B018111D5
:100F100003C08FEF9FEF08959FB7F89482E080930E
:100F2000E9002091F20030E01216130614F421E0DB
:100F300030E02115310559F0289884E680934A0164
:100F40008091F10080838091F200882319F09FBF87
:100F5000C90108958BE68093E800F9CF2FB7F89484
:100F600083E08093E9009091E800892F807295FFDB
:100F700004C09091F20080E4891B2FBF08958091F6
:100F80006C0581110DC082E08093680584E0809338
:100F9000690510926B0510926A0581E080936C05DB
:100FA00088E695E00895CF93DF931F92CDB7DEB723
:100FB0006983DC01ED91FC910280F381E02D41E039
:100FC00050E0BE016F5F7F4F09950F90DF91CF9189
:100FD000089583E08093E9008091F200882319F05E
:100FE0008AE38093E80008950E94AE0790E0089598
:100FF000CF93DF931F92CDB7DEB7FC018485958533
:1010000097FD05C02FEF3FEF358724870BC0CE013A
:1010100001960E948407019719F4898190E002C02B
:101020008FEF9FEF0F90DF91CF9108950F931F9354
:10103000CF93DF931F92CDB7DEB78C01FC0184857F
:10104000958597FF0EC0CE0101960E9484070197F7
:1010500019F4298130E002C02FEF3FEFF801358706
:101060002487F801848595850F90DF91CF911F919A
:101070000F910895FC018485958597FD0BC09FB75E
:10108000F89482E08093E9008091F2009FBF90E0A5
:10109000019608959FB7F89482E08093E9008091CB
:1010A000F2009FBF90E0089540916505509166055C
:1010B000209163053091640542175307B4F4909171
:1010C000E8009570E1F39091E80092FD19C08093DB
:1010D000F100809165059091660501968F739927BF
:1010E000892B19F48EEF8093E8008091650590912B
:1010F00066050196909366058093650581E00895E5
:1011000080E00895CF92DF92EF92FF920F931F93AA
:10111000CF93DF931F92CDB7DEB7182F062FE42EA3
:10112000862F880F8E5F99830E94540883E00E9467
:101130005408F12EC12E9981D92E8C2D8F1980172C
:1011400098F4F601E7FE02C0849101C080810E94FC
:101150005408182F80E00E9454088123FFEFCF1A13
:10116000DF0A8111EACF01C081E00F90DF91CF91BA
:101170001F910F91FF90EF90DF90CF900895DF9235
:10118000EF92FF920F931F93CF93DF93D82E8A0194
:101190007B01E40EF51EEB01CE15DF0571F0D7FEE5
:1011A00003C0FE01849101C088810E9454082196E9
:1011B0008111F2CF8FEF9FEF01C0C801DF91CF9176
:1011C0001F910F91FF90EF90DF9008950F931F9361
:1011D000CF93DF931F92CDB7DEB782E0898342E4DD
:1011E00050E06EE87AE080E80E94BF080E94BF07E6
:1011F000DC0112960D911C9113970115110569F0F0
:10120000D801ED91FC910280F381E02DBE016F5F6A
:101210007F4FC801099597FF07C089810F90DF9123
:10122000CF911F910F910895F80100851185E5CFA9
:101230008F929F92AF92BF92CF92DF92EF92FF92E6
:101240000F931F93CF93DF935C016B017A01809121
:101250000C01882309F45BC080914B01882309F4B9
:1012600056C08091490180FF05C08091E0008260F6
:101270008093E000E70110E00AEF83E0882E9AE314
:10128000992E2097D9F10E94AE0781110AC0015012
:1012900009F43DC061E070E080E090E00E94020748
:1012A000F0CF282F30E0C217D3070CF48C2F4FB7A4
:1012B000F8948092E9009091E80095FF1DC0282FD6
:1012C00030E0C21BD30BF601982F915020F0819192
:1012D0008093F100FACFC20ED31E112319F0909221
:1012E000E80009C08091E80085FD06C09092E80002
:1012F00011E0209709F010E04FBFC3CF1111C3CF09
:101300005D9884E6809367051E141F0444F081E015
:1013100090E0F5019383828380E090E001C0C701F3
:10132000DF91CF911F910F91FF90EF90DF90CF90C1
:10133000BF90AF909F908F900895AF92BF92CF9241
:10134000DF92EF92FF920F931F93CF93DF937B0176
:10135000EC015C01A40EB11C6B01C20ED11CCA15BC
:10136000DB05ECF48701F7FE10C000E010E00DC0D3
:101370000817190794F4C038D10528F441E0B801E2
:10138000CE010E94FF050F5F1F4FC60121E4C21668
:10139000D10474F380E490E0EBCF2196E0CFDF91AD
:1013A000CF911F910F91FF90EF90DF90CF90BF9062
:1013B000AF900895ECE4F1E080E0A0E0B8E00080B8
:1013C0000EBC8111012C1197A0FDFDCF0192B9F740
:1013D0000DB408951F920F920FB60F9211248F93A0
:1013E0009F938091E1009091E100937F9093E100C1
:1013F00083FF0FC01092E90091E09093EB001092F0
:10140000EC0092E39093ED0010924B0198E09093E2
:10141000F00082FF20C093E09093E9009091F200E9
:10142000992319F09AE39093E80090916705992326
:1014300039F090916705915090936705992389F150
:1014400090914A01992339F090914A0191509093DB
:101450004A01992341F184FF10C08091E2008E7E01
:1014600081608093E2008091E1008F7E8093E100B3
:10147000809149018E7E806111C080FF16C08091ED
:10148000E2008E7E80618093E2008091E1008E7E9A
:101490008093E100809149018E7E816080934901B3
:1014A00004C05D9ACDCF289AD6CF9F918F910F908F
:1014B0000FBE0F901F9018951F920F920FB60F92AC
:1014C0001124CF92DF92EF92FF920F931F932F93ED
:1014D0003F934F935F936F937F938F939F93AF93BC
:1014E000BF93EF93FF93CF93DF93CDB7DEB76C97A6
:1014F000DEBFCDBF1092E9008091E80083FFEDC10F
:1015000068E0CE0145960E948C0C82EF8093E80043
:101510008D8987FF05C09091E80090FFFCCF03C044
:101520009EEF9093E800982F907609F0C6C09E89B0
:101530002F89188D91110CC0803829F480914801B1
:101540008093F10002C01092F1001092F10048C1A6
:10155000422F50E0512B913051F4811141C1413063
:10156000510509F03DC1809148018D7F0BC093303A
:1015700061F4811135C14130510509F031C18091CB
:1015800048018260809348012BC1953041F48091DD
:10159000E80080FFFCCF20682093E30021C1963053
:1015A00009F05FC0EB8CFC8C1092E900109266058C
:1015B00010926505123091F5109264051092630542
:1015C0000E94E60899E0BE016F5F7F4FDB01E92FC3
:1015D0001D92EA95E9F799831A8391E09E8390EA38
:1015E00098879AEF99872091650530916605275F66
:1015F0003F4F3C832B838D831092E9001092660548
:1016000010926505F0926405E092630549E050E0B0
:1016100080E00E94BF080E94E608E2C0F0926405E4
:10162000E09263050E94BF07DC011296ED90FC90EA
:101630001397E114F10409F4C0C0D701ED91FC91B6
:101640000480F581E02DBE016B5E7F4FC7010995D7
:10165000009719F00CF0C4C0C7C0F701E084F18412
:10166000E8CF973009F4C0C0983021F481E080932E
:10167000F100B6C0993009F0B3C0837009F0B4C06E
:10168000EEE0F1E081E021E036E39081992361F022
:101690008093E9002093EB0091919093EC003093BC
:1016A000ED008F5F873089F78EE78093EA00109214
:1016B000EA008F8980934B0193C08B8D9C8D109293
:1016C000E900109266051092650590936405809379
:1016D0006305898D811156C08E899D89913A59F48F
:1016E000813209F081C047E050E065E071E080E0C0
:1016F0000E94BF0875C0913209F076C0833289F428
:10170000888D90E0982F88272F89822BA0E0B0E069
:101710008093010190930201A0930301B09304010F
:101720005FC0803269F48091E80082FFFCCF67E0FF
:1017300085E091E00E948C0C8BEF8093E80006C05E
:10174000823209F04DC08F8980930C01809147014E
:10175000882319F0EEEFFAE002C0E0E0F8E08091B3
:10176000050190910601A0910701B0910801803B0D
:101770009440A105B10509F07BC080910C0180FF68
:1017800093C076C00E94BF07DC0112960D911C9198
:1017900013970115110541F1D801ED91FC910190CC
:1017A000F081E02DBE016B5E7F4FC801099581116C
:1017B00017C0F80100851185ECCF113009F44EC037
:1017C000133091F48F89882309F445C0823081F465
:1017D00040E860E182EF9AE00E948208882321F0CD
:1017E0008EEF8093E80079C081E28093EB0075C0B2
:1017F000813029F440E86BE086EE9AE0EDCF83304B
:1018000099F70E94BF07DC011296ED90FC901397A8
:101810008E010F5F1F4F6801E114F10479F0D701C9
:10182000ED91FC910680F781E02DB801C701099583
:10183000080F111DF701E084F184EECFD8011C924E
:10184000F60101900020E9F73197BF016C197D097D
:1018500040E0C601C1CF60ED7AE002C064ED7AE0FD
:101860006115710509F2FB01449150E080E840CF19
:101870000FB6F894A895809160008861809360000D
:10188000109260000FBEA895EE3F2AE0F20739F0F3
:101890008091FE0A9091FF0A91838083A1CF1092DC
:1018A000FF0A1092FE0A9CCFEE3F8AE0F80731F063
:1018B000808191819093FF0A8093FE0A87E797E7E2
:1018C000918380839BE088E10FB6F894A89580937C
:1018D00060000FBE9093600083CF6C960FB6F894B3
:1018E000DEBF0FBECDBFDF91CF91FF91EF91BF91D2
:1018F000AF919F918F917F916F915F914F913F91A8
:101900002F911F910F91FF90EF90DF90CF900F904C
:101910000FBE0F901F901895615030F02091F1008C
:10192000FC0120830196F8CF289884E680934A0131
:101930000895CF93DF9300D0CDB7DEB7789483E0DE
:1019400084BD83E085BD81E080936E00E1E8F0E036
:1019500083E08083E0E881E08083E3EC81E08083C2
:10196000E2EC81E08083EAE787E08083806880831F
:1019700010924B0110924801109249018091D700BA
:1019800081608093D70080EA8093D80089B5806118
:1019900089BD89B5826089BD09B400FEFDCF61E0D3
:1019A00070E080E090E00E9402078091D8008F7C78
:1019B00080618093D8008091E000807F8093E00078
:1019C0008091E1008E7E8093E1008DE08093E200C3
:1019D000559A209AEEEFFFE7859194918B3F9C4DAD
:1019E00019F481E08093470181EC80937C0085B1FC
:1019F000806F85B984B1877E84B984B1876E84B9DC
:101A00005E9A5F988AB1806D8AB9769A6E9881B332
:101A1000806F81BB899880B38D7080BB80E58CBD61
:101A200081E08DBD85E090E00E941A075F9A85E015
:101A300090E00E941A075E985C98E9E6FAE08DE073
:101A40008E0F94919EBD00000DB407FEFDCF319620
:101A50008E13F7CF5C9A81E88093640080916500D3
:101A60008160809365000E94D80587FF24C05C9840
:101A700085EA8EBD00000DB407FEFDCF5C9A2E985E
:101A80002F982D988091640080628093640081E09B
:101A900083BF889513BEFCCF2D980E94D80584780B
:101AA000843871F00E94D8058471843129F188EC62
:101AB00090E00E941A070E94D80582FDEDCF38C041
:101AC0002D9A88EC90E00E941A072F9882E090E00F
:101AD0000E94D5108F3F29F06FEF82E090E00E94C6
:101AE000DD1084EF91E00E941A072F9A0E94D8051A
:101AF00084788438D9F3D6CF2D9A88EC90E00E9470
:101B00001A072E9882E090E00E94D510882329F0D1
:101B100060E082E090E00E94DD1084EF91E00E949E
:101B20001A072E9A0E94D80584718431D9F3BFCF49
:101B30002D9A01E01CE4C12E11E0D12E80E0482E48
:101B400080E0582E11E08FB7F894409143015091F6
:101B5000440160914501709146018FBF8091580505
:101B6000942F981B80915905882329F090935A054A
:101B7000109259059EC220915705921740F49F5F1D
:101B8000921708F096C203BF889513BE92C21093B5
:101B900059054093580520915305309154052F5F06
:101BA0003F4F3093540520935305F60181118FEF79
:101BB000002481938193819381930394D1F71092B0
:101BC0005E0510925D0510925C0510925B05809198
:101BD0005505809356050E94D80580935505809140
:101BE00053059091540564E170E00E94EB10892B3D
:101BF00051F4809100018F5F8D3019F080930001C6
:101C000002C01093000180910001482F50E0FA01BA
:101C10003197EC30F10508F04AC2EA5AFF4F0C94B4
:101C2000FF102FE041E660E070E08FE190E00E945D
:101C30009D0920E141E660E370E08FE190E00E94C1
:101C40009D0921E240E46FE070E080E090E092C105
:101C500022E141E660E070E085E290E00E949D09AB
:101C600023E14BE56DE270E085E290E00E949D0982
:101C70002BE145E362E170E08BE090E07BC124E181
:101C800044E562E070E08CE290E00E949D0924E16E
:101C900044E569E270E08CE290E00E949D0923E156
:101CA00047E266E170E088E190E00E949D0922E051
:101CB00045E160E070E083E590E00E949D0923E04B
:101CC00045E16DE370E083E590E00E949D0922E02C
:101CD00045E060E070E08BE790E00E949D0923E022
:101CE00045E06DE370E08CE790E044C12FE043E60F
:101CF0006AE070E08DE190E00E949D092FE043E6EC
:101D000066E270E08DE190E00E949D092DE04DE1DA
:101D100069E170E08EE090E00E949D092DE04EE0C8
:101D200069E170E082E790E00E949D092AE04FE0BF
:101D300060E070E089E390E00E949D092AE04EE0B7
:101D400060E070E086E590E00E949D092BE04FE0A6
:101D500065E370E089E390E00E949D092BE04EE08E
:101D600065E370E086E590E005C126E04EE160E0C5
:101D700070E089E090E00E949D0926E04AE060E082
:101D800070E081E390E00E949D0926E04AE060E077
:101D900070E085E490E00E949D092AE04AE066E058
:101DA00070E087E290E00E949D092AE04AE066E048
:101DB00070E08BE390E00E949D092BE040E560E13C
:101DC00070E083E190E00E949D0929E044E16BE12D
:101DD00070E089E090E00E949D0929E04DE16BE10F
:101DE00070E08FE490E00E949D0929E04DE16BE1F5
:101DF00070E08FE490E00E949D092BE040E564E2F2
:101E000070E083E190E00E949D092AE04AE06FE2E1
:101E100070E087E290E00E949D092AE04AE06FE2CC
:101E200070E08BE390E00E949D0927E04EE169E3BA
:101E300070E089E090E00E949D0927E04AE069E3B4
:101E400070E081E390E00E949D0927E04AE069E3A9
:101E500070E085E490E08EC026E049E360E070E049
:101E600080E090E00E949D0926E048E060E070E09C
:101E700080E490E00E949D0927E046E166E070E082
:101E800087E090E00E949D0927E047E066E070E06F
:101E900084E290E00E949D0927E047E066E070E060
:101EA00082E390E00E949D0927E047E06DE070E04A
:101EB0008DE190E00E949D0927E047E06DE070E031
:101EC0008BE290E00E949D0928E04AE364E170E023
:101ED0008EE090E00E949D0927E04EE06CE170E00A
:101EE00087E090E00E949D0927E045E16CE170E009
:101EF00089E390E00E949D0928E04AE363E270E0F4
:101F00008EE090E00E949D0927E047E06BE270E0E0
:101F10008DE190E00E949D0927E047E06BE270E0D0
:101F20008BE290E00E949D0927E046E162E370E0C9
:101F300087E090E00E949D0927E047E062E370E0BF
:101F400084E290E00E949D0927E047E062E370E0B0
:101F500082E390E00E949D0927E049E369E370E095
:101F600080E090E00E949D0927E048E069E370E08E
:101F700080E490E00E949D099AC0875090E0880F0D
:101F8000991FFC01EE57F54FB490FC01ED57F54F4A
:101F90008490FC01EA58F54F259134914B2D50E087
:101FA0002115310509F483C0F90174903196F4913B
:101FB000E72CF12CBA016E0D7F1D6115710509F436
:101FC00076C0403851050CF072C0882D90E0DC01DD
:101FD000AF0FB11DAB2B09F46AC0803491050CF032
:101FE00066C0E82DE7708E2EA3E095958795AA959B
:101FF000E1F7603871051CF0E0E87E2E7B18E1E027
:102000006F2F677009F4E0E0F695F695F6959E2E31
:102010009F0EBC01690D711D693071051CF078E0DF
:10202000972E981A2E5F3F4F682EBC017695762F1B
:10203000662777956795460F571FAA24A394B12C5E
:10204000082C02C0AA0CBB1C0A94E2F7662D681B80
:10205000691568F5DA01A45BBE4F60E070E06715B2
:1020600000F5F901E60FF71FE491EA9D1001EB9DE1
:10207000300C11243A82298267FC03C0EC912E2A8D
:102080002C92882051F0F6E0F6153CF0FD01E05866
:10209000FF4F20803A80322830826F5F7F4F119649
:1020A000DECF63942E0D3F1D40585F4FCFCF0E946F
:1020B000DA094114510409F446CD0E94000043CDD1
:1020C0000F931F93CF93DF938C0181E090E00E94E8
:1020D000D51080FF31C08AE090E00E94D5109FEFBC
:1020E000980F9E3F48F522E330E0D80150963C938C
:1020F0002E931F9728E330E052963C932E935197EE
:10210000CBE0D0E0D801ED91FC910190F081E02D81
:10211000682FC8010995CE010E94D5102196C131C2
:10212000D10581F70E94DA0988EE93E0DF91CF9123
:102130001F910F910C941A07DF91CF911F910F916E
:10214000089504970C946010E4E7F5E0138212827E
:1021500088EE93E0A0E0B0E084839583A683B78304
:1021600088E191E0918380838FEF9FEF958784874B
:10217000ECE4F5E0138212821186128680E18387F7
:102180001086178215868AE291E09183808388E326
:1021900091E095838483108A1786128A118A81E0E0
:1021A000838B148A858B168A0895F999FECF92BD88
:1021B00081BDF89A992780B50895262FF999FECF09
:1021C0001FBA92BD81BD20BD0FB6F894FA9AF99A54
:1021D0000FBE01960895AA1BBB1B51E107C0AA1FA1
:1021E000BB1FA617B70710F0A61BB70B881F991FB8
:1021F0005A95A9F780959095BC01CD010895EE0FF1
:10220000FF1F0590F491E02D099481E090E0F8948F
:082210000C940A11F894FFCFB1
:1022180001FFFFFFFF00E100000000000000C18097
:102228008100000000000000D3071809F407E9073F
:102238003A08F8071608000000001706AD05E20581
:0A224800E1056010FCFF0000A1108A
:00000001FF
