:100000000C9453030C947B030C947B030C947B03A0
:100010000C947B030C947B030C947B030C947B0368
:100020000C947B030C947B030C9419050C948B05A6
:100030000C947B030C947B030C947B030C947B0348
:100040000C947B030C947B030C947B030C947B0338
:100050000C947B030C947B030C947B030C94680935
:100060000C947B030C947B030C947B030C947B0318
:100070000C947B030C947B030C947B030C947B0308
:100080000C947B030C947B030C947B030C947B03F8
:100090000C947B030C947B030C947B030C947B03E8
:1000A0000C947B030C947B030C947B0300000000F6
:1000B000003E5B4F5B3E3E6B4F6B3E1C3E7C3E1CEE
:1000C000183C7E3C181C577D571C1C5E7F5E1C0034
:1000D000183C1800FFE7C3E7FF0018241800FFE7EB
:1000E000DBE7FF30483A060E2629792926407F05AE
:1000F0000507407F05253F5A3CE73C5A7F3E1C1CC4
:1001000008081C1C3E7F14227F22145F5F005F5F83
:1001100006097F017F006689956A6060606060946F
:10012000A2FFA29408047E040810207E2010080874
:100130002A1C08081C2A08081E101010100C1E0C7F
:100140001E0C30383E3830060E3E0E060000000011
:100150000000005F00000007000700147F147F14F8
:10016000242A7F2A1223130864623649562050003D
:1001700008070300001C2241000041221C002A1C29
:100180007F1C2A08083E0808008070300008080814
:100190000808000060600020100804023E51494534
:1001A0003E00427F400072494949462141494D3352
:1001B0001814127F1027454545393C4A49493141B9
:1001C000211109073649494936464949291E000087
:1001D00014000000403400000008142241141414DC
:1001E0001414004122140802015909063E415D59C8
:1001F0004E7C1211127C7F494949363E41414122D1
:100200007F4141413E7F494949417F090909013EFA
:10021000414151737F0808087F00417F4100204021
:10022000413F017F081422417F404040407F021C33
:10023000027F7F0408107F3E4141413E7F0909094A
:10024000063E4151215E7F09192946264949493216
:1002500003017F01033F4040403F1F2040201F3FDC
:100260004038403F63140814630304780403615961
:10027000494D43007F4141410204081020004141A3
:10028000417F04020102044040404040000307084F
:100290000020545478407F2844443838444444284B
:1002A000384444287F385454541800087E090218F2
:1002B000A4A49C787F0804047800447D400020407A
:1002C000403D007F1028440000417F40007C0478BE
:1002D00004787C080404783844444438FC18242406
:1002E0001818242418FC7C08040408485454542486
:1002F00004043F44243C4040207C1C2040201C3C03
:100300004030403C44281028444C9090907C4464F9
:10031000544C44000836410000007700000041368C
:10032000080002010204023C2623263C1EA1A16112
:10033000123A4040207A3854545559215555794144
:100340002154547841215554784020545579400C1B
:100350001E527212395555555939545454593955FC
:100360005454580000457C410002457D420001453F
:100370007C40F0292429F0F0282528F07C545545AC
:10038000002054547C547C0A097F4932494949323F
:100390003248484832324A4848303A4141217A3A54
:1003A00042402078009DA0A07D39444444393D401E
:1003B00040403D3C24FF2424487E4943662B2FFCCB
:1003C0002F2BFF0929F620C0887E09032054547979
:1003D000410000447D413048484A32384040227A4A
:1003E000007A0A0A727D0D19317D2629292F2826C7
:1003F0002929292630484D402038080808080808CF
:100400000808382F10C8ACBA2F102834FA00007B27
:10041000000008142A142222142A1408950022002D
:1004200095AA005500AAAA55AA55AA000000FF00E7
:10043000101010FF00141414FF001010FF00FF1024
:1004400010F010F0141414FC001414F700FF000056
:10045000FF00FF1414F404FC141417101F10101FD5
:10046000101F1414141F00101010F0000000001FC3
:10047000101010101F10101010F010000000FF10CE
:100480001010101010101010FF10000000FF1400CA
:1004900000FF00FF00001F10170000FC04F41414FC
:1004A0001710171414F404F40000FF00F7141414C8
:1004B00014141414F700F7141414171410101F1048
:1004C0001F141414F4141010F010F000001F101F6B
:1004D0000000001F14000000FC140000F010F010D9
:1004E00010FF10FF141414FF141010101F00000050
:1004F00000F010FFFFFFFFFFF0F0F0F0F0FFFFFF54
:100500000000000000FFFF0F0F0F0F0F38444438AA
:10051000447C2A2A3E147E02020606027E027E02E5
:1005200063554941633844443C04407E201E200604
:10053000027E020299A5E7A5991C2A492A1C4C7241
:1005400001724C304A4D4D303048784830BC625AC8
:10055000463D3E494949007E0101017E2A2A2A2A58
:100560002A44445F444440514A444040444A514034
:100570000000FF0103E080FF000008086B6B0836F5
:1005800012362436060F090F060000181800000066
:100590001010003040FF0101001F01011E00191D55
:1005A0001712003C3C3C3C00000000000102040823
:1005B00010204080080B0002020201000904000024
:1005C00001020200000524001001052401010104BC
:1005D00024020605240600010705810310004009D6
:1005E000040100020A0000000705020240000007A3
:1005F0000583024000000403090412010002EF0217
:1006000001404123368000010102030141726475FB
:10061000696E6F204C4C430041726475696E6F20A7
:100620004C656F6E6172646F00D5F08D14A1C88146
:10063000CFD9F1AF200012130020B0F020202060AD
:100640006060BC66BC600030000000206F7F20202E
:1006500020323735ED37ED35076702000000000026
:100660000000000000000103010000000000002065
:10067000B0F0202020606060BC66BC6000600000BC
:1006800000206F7F202020323735ED37ED350737DA
:100690000200000000000000000000000103010053
:1006A00000000000650D11241FBECFEFDAE0DEBFB1
:1006B000CDBF11E0A0E0B1E0EEEDFBE102C005909E
:1006C0000D92A434B107D9F725E0A4E4B1E001C04C
:1006D0001D92AE3CB207E1F713E0C3E5D3E004C0DE
:1006E0002197FE010E94E20DC235D107C9F70E9491
:1006F000040B0C94ED0D0C94000040914F015091AF
:10070000500120914D0130914E0142175307B4F42E
:100710009091E8009570E1F39091E80092FD19C086
:100720008093F10080914F019091500101968F7359
:100730009927892B19F48EEF8093E80080914F015F
:100740009091500101969093500180934F0181E068
:10075000089580E00895CF92DF92EF92FF920F9379
:100760001F93CF93DF931F92CDB7DEB7182F062FBD
:10077000E42E862F880F8E5F99830E947D0383E08D
:100780000E947D03F12EC12E9981D92E8C2D8F19B7
:10079000801798F4F601E7FE02C0849101C08081C1
:1007A0000E947D03182F80E00E947D038123FFEFCC
:1007B000CF1ADF0A8111EACF01C081E00F90DF91EB
:1007C000CF911F910F91FF90EF90DF90CF90089500
:1007D000DF92EF92FF920F931F93CF93DF93D82E68
:1007E0008A017B01E40EF51EEB01CE15DF0571F0E9
:1007F000D7FE03C0FE01849101C088810E947D0361
:1008000021968111F2CF8FEF9FEF01C0C801DF91D8
:10081000CF911F910F91FF90EF90DF90089561505D
:1008200030F02091F100FC0120830196F8CF289848
:1008300084E6809359010895CF92DF92EF92FF9260
:100840000F931F93CF93DF936C017A018B01C0E06C
:10085000D0E0CE15DF0589F0D8016D918D01D6016C
:10086000ED91FC910190F081E02DC6010995892B55
:1008700011F47E0102C02196ECCFC701DF91CF9128
:100880001F910F91FF90EF90DF90CF900895CF933D
:10089000DF931F92CDB7DEB76983DC01ED91FC9148
:1008A0000280F381E02D41E050E0BE016F5F7F4F99
:1008B00009950F90DF91CF91089583E08093E9002F
:1008C0008091F200882319F08AE38093E80008956C
:1008D000FC018485958597FD0BC09FB7F89482E055
:1008E0008093E9008091F2009FBF90E00196089507
:1008F0009FB7F89482E08093E9008091F2009FBF57
:1009000090E008950895089580E090E00895A9E4A6
:10091000B1E02FB7F8947D918D919C9166B52FBF72
:10092000A89B05C06F3F18F47F5F8F4F9F4F22E059
:10093000660F771F881F991F2A95D1F708950E9487
:10094000E80D0F931F93CF93DF931F92CDB7DEB7C0
:1009500082E0898342E450E064EB75E080E80E9425
:10096000E8030E94AC0ADC0112960D911C911397CA
:100970000115110569F0D801ED91FC910280F38118
:10098000E02DBE016F5F7F4FC801099597FF07C03B
:1009900089810F90DF91CF911F910F910895F801F8
:1009A00000851185E5CF0E949B0A90E00895CF93C2
:1009B000DF931F92CDB7DEB7FC018485958597FD47
:1009C00005C02FEF3FEF358724870BC0CE0101967E
:1009D0000E94710A019719F4898190E002C08FEF9B
:1009E0009FEF0F90DF91CF9108950F931F93CF93B7
:1009F000DF931F92CDB7DEB78C01FC01848595850E
:100A000097FF0EC0CE0101960E94710A019719F45A
:100A1000298130E002C02FEF3FEFF80135872487AE
:100A2000F801848595850F90DF91CF911F910F91EB
:100A300008951F920F920FB60F9211248F939F93D8
:100A40008091E1009091E100937F9093E10083FF1A
:100A50000FC01092E90091E09093EB001092EC002F
:100A600092E39093ED0010925A0198E09093F00079
:100A700082FF20C093E09093E9009091F2009923C7
:100A800019F09AE39093E80090915101992339F07D
:100A900090915101915090935101992389F1909136
:100AA0005901992339F0909159019150909359012E
:100AB000992341F184FF10C08091E2008E7E816015
:100AC0008093E2008091E1008F7E8093E10080912D
:100AD00053018E7E806111C080FF16C08091E200BC
:100AE0008E7E80618093E2008091E1008E7E809313
:100AF000E100809153018E7E81608093530104C098
:100B00005D9ACDCF289AD6CF9F918F910F900FBE2F
:100B10000F901F9018951F920F920FB60F921124ED
:100B2000CF92DF92EF92FF920F931F932F933F93F9
:100B30004F935F936F937F938F939F93AF93BF93E5
:100B4000EF93FF93CF93DF93CDB7DEB76C97DEBF04
:100B5000CDBF1092E9008091E80083FFEDC168E00D
:100B6000CE0145960E940F0482EF8093E8008D89A4
:100B700087FF05C09091E80090FFFCCF03C09EEF77
:100B80009093E800982F907609F0C6C09E892F892F
:100B9000188D91110CC0803829F4809154018093F4
:100BA000F10002C01092F1001092F10048C1422FF2
:100BB00050E0512B913051F4811141C14130510528
:100BC00009F03DC1809154018D7F0BC0933061F4D9
:100BD000811135C14130510509F031C18091540175
:100BE0008260809354012BC1953041F48091E800DC
:100BF00080FFFCCF20682093E30021C1963009F0EC
:100C00005FC0EB8CFC8C1092E900109250011092A6
:100C10004F01123091F510924E0110924D010E9439
:100C2000A10499E0BE016F5F7F4FDB01E92F1D92A8
:100C3000EA95E9F799831A8391E09E8390EA988771
:100C40009AEF998720914F0130915001275F3F4FD4
:100C50003C832B838D831092E900109250011092F7
:100C60004F01F0924E01E0924D0149E050E080E0EA
:100C70000E94E8030E94A104E2C0F0924E01E092BB
:100C80004D010E94AC0ADC011296ED90FC90139786
:100C9000E114F10409F4C0C0D701ED91FC91048086
:100CA000F581E02DBE016B5E7F4FC701099500976E
:100CB00019F00CF0C4C0C7C0F701E084F184E8CF9C
:100CC000973009F4C0C0983021F481E08093F1009E
:100CD000B6C0993009F0B3C0837009F0B4C0EEE03B
:100CE000F1E081E021E036E39081992361F0809387
:100CF000E9002093EB0091919093EC003093ED008C
:100D00008F5F873089F78EE78093EA001092EA00C0
:100D10008F8980935A0193C08B8D9C8D1092E9002E
:100D20001092500110924F0190934E0180934D010B
:100D3000898D811156C08E899D89913A59F48132ED
:100D400009F081C047E050E064E071E080E00E947B
:100D5000E80375C0913209F076C0833289F4888D3A
:100D600090E0982F88272F89822BA0E0B0E0809315
:100D7000000190930101A0930201B09303015FC0B1
:100D8000803269F48091E80082FFFCCF67E084E064
:100D900091E00E940F048BEF8093E80006C082323E
:100DA00009F04DC08F8980930B01809152018823F7
:100DB00019F0EEEFFAE002C0E0E0F8E08091040103
:100DC00090910501A0910601B0910701803B9440EC
:100DD000A105B10509F07BC080910B0180FF93C094
:100DE00076C00E94AC0ADC0112960D911C911397FB
:100DF0000115110541F1D801ED91FC910190F081AF
:100E0000E02DBE016B5E7F4FC8010995811117C0AF
:100E1000F80100851185ECCF113009F44EC0133074
:100E200091F48F89882309F445C0823081F440E829
:100E300060E188E196E00E94AB03882321F08EEF09
:100E40008093E80079C081E28093EB0075C0813027
:100E500029F440E86BE08CE096E0EDCF833099F721
:100E60000E94AC0ADC011296ED90FC9013978E0163
:100E70000F5F1F4F6801E114F10479F0D701ED9184
:100E8000FC910680F781E02DB801C7010995080F94
:100E9000111DF701E084F184EECFD8011C92F60118
:100EA00001900020E9F73197BF016C197D0940E0FE
:100EB000C601C1CF66EF75E002C06AEF75E061154B
:100EC000710509F2FB01449150E080E840CF0FB674
:100ED000F894A895809160008861809360001092DA
:100EE00060000FBEA895EE3F2AE0F20739F080912E
:100EF000FE0A9091FF0A91838083A1CF1092FF0A8E
:100F00001092FE0A9CCFEE3F8AE0F80731F0808114
:100F100091819093FF0A8093FE0A87E797E7918378
:100F200080839BE088E10FB6F894A89580936000D9
:100F30000FBE9093600083CF6C960FB6F894DEBF1F
:100F40000FBECDBFDF91CF91FF91EF91BF91AF91D8
:100F50009F918F917F916F915F914F913F912F91D1
:100F60001F910F91FF90EF90DF90CF900F900FBEE9
:100F70000F901F9018958FB18095807F669B886039
:100F80001C9B84600895ECEAF5E090E1969FD00107
:100F9000A0781124A80F6770E60FF11D9491A55A4F
:100FA000BE4F442319F08C91982B03C090958C91DF
:100FB00098239C9308952F923F924F925F926F9245
:100FC0007F928F929F92AF92BF92CF92DF92EF92D9
:100FD000FF920F931F93CF93DF93CDB7DEB7279781
:100FE0000FB6F894DEBF0FBECDBFFC016A3069F4C6
:100FF00025898189928938E0239F800D911D1124D4
:10100000928B818B108A1786A6C06D3009F4A3C01D
:101010009F838E8335882489298333893A83618825
:101020007288E784F08880E8E816F104C4F0AE81A5
:10103000BF8155962C915597422F50E01F968D9168
:101040009C915097B6E02B9F800D911D1124EE814D
:10105000FF81908B87872689211167C07CC0F0E4CF
:101060006F16710424F7C70125E0329E800D911D93
:10107000112418161906DCF6432C512CC30138E054
:10108000339E800D911D11241816190684F685E0F3
:10109000689F8001112404551F4F20E0F80124901F
:1010A000253009F4212C430158E020FC02C039818D
:1010B00001C03A8131110BC0F9818A81F81307C050
:1010C00026945150840C951C5111EFCF25C0670117
:1010D0008C2D8E198315A0F754018A2D881983153C
:1010E000B8F490E8C916D10478F4A0E4AA16B104C3
:1010F00058F4432FB501C6012C833B835D830E94C6
:10110000C3075D813B812C81BFEFAB1ABB0AE5CFE2
:10111000EFEFCE1ADE0ADCCF2F5FE40CF51C0F5F79
:101120001F4F263009F0BACF82CF6AEF64039001D7
:10113000659F300D112420583F4F281739075CF464
:10114000AE81BF81ED91FC9111970190F081E02D6E
:101150006AE0CD01099581E090E027960FB6F894FA
:10116000DEBF0FBECDBFDF91CF911F910F91FF90DA
:10117000EF90DF90CF90BF90AF909F908F907F9037
:101180006F905F904F903F902F900895AB01FC01BE
:101190000E94870441505109E109F10928F0685182
:1011A0007C4F8F4F9F4FF6CFAB01FC010E9487040D
:1011B000641775078E079F07C8F308958F929F9253
:1011C000AF92BF92CF92DF92EF92FF920F931F9355
:1011D000CF93DF935C016B017A0180910B0188232F
:1011E00009F45BC080915A01882309F456C08091AC
:1011F000530180FF05C08091E00082608093E00091
:10120000E70110E00AEF83E0882E9AE3992E2097F9
:10121000D9F10E949B0A81110AC0015009F43DC016
:1012200061E070E080E090E00E94C608F0CF282FD7
:1012300030E0C217D3070CF48C2F4FB7F89480928C
:10124000E9009091E80095FF1DC0282F30E0C21BF7
:10125000D30BF601982F915020F081918093F100EB
:10126000FACFC20ED31E112319F09092E80009C0E4
:101270008091E80085FD06C09092E80011E020977B
:1012800009F010E04FBFC3CF1111C3CF5D9884E6C2
:10129000809351011E141F0444F081E090E0F50199
:1012A0009383828380E090E001C0C701DF91CF91FA
:1012B0001F910F91FF90EF90DF90CF90BF90AF9074
:1012C0009F908F900895BC0180E090E00C94C60838
:1012D0000F930FB70F931F9211248F939F93EF9348
:1012E000FF93E5E5F1E08091480191E08D5F8D3756
:1012F00010F08D579395809348018081890F8083EA
:101300009181911D91830281011D02838381811D41
:10131000838309270F70092702950093470135D071
:10132000811100934501803989F400914601901B99
:10133000963070F087E7809300088093010888E179
:1013400098E08093600090936000FFCF90934601F7
:1013500080914401815018F08093440159F3E9E4ED
:10136000F1E08081918101968083918382819381D4
:10137000811D911D82839383FF91EF919F918F91A6
:101380001F900F910FBF0F9118958FB18095807F9F
:10139000669B88601C9B84600895BC01009791F057
:1013A000FC0101900020E9F73197AF01481B590B70
:1013B000E0915B05F0915C050280F381E02D8BE507
:1013C00095E0099480E090E00895E0915B05F0914C
:1013D0005C050190F081E02D682F8BE595E0099484
:1013E0008F929F92AF92BF92CF92DF92EF92FF9235
:1013F0000F931F93CF93DF93CDB7DEB7A1970FB6AF
:10140000F894DEBF0FBECDBF6B017C0197FF29C0F2
:101410008DE20E94E5098C0122273327A9012C19AE
:101420003D094E095F0919A2CE0181967C019AE01F
:10143000892E912CA12CB12CCA01B901A5019401CE
:101440000E94AC0D605DF70162937F0121153105AB
:101450004105510589F7CF010E94CD09800F911FE9
:101460001DC09B01AC0119A28E010F5D1F4F8AE0C8
:10147000C82ED12CE12CF12CCA01B901A70196018B
:101480000E94AC0D605DF80162938F01211531055A
:101490004105510589F7CF010E94CD09A1960FB6EC
:1014A000F894DEBF0FBECDBFDF91CF911F910F919A
:1014B000FF90EF90DF90CF90BF90AF909F908F9074
:1014C0000895EBE5F1E080E0A0E0B8E000800EBC1C
:1014D0008111012C1197A0FDFDCF0192B9F70DB438
:1014E0000895FC0180915A01811103C08FEF9FEF95
:1014F00008959FB7F89482E08093E9002091F2006C
:1015000030E01216130614F421E030E02115310505
:1015100059F0289884E6809359018091F1008083E6
:101520008091F200882319F09FBFC90108958BE6CE
:101530008093E800F9CF2FB7F89483E08093E90017
:101540009091E800892F807295FF04C09091F2007D
:1015500080E4891B2FBF08958091C60581110DC0BD
:1015600082E08093C20584E08093C3051092C50594
:101570001092C40581E08093C60582EC95E0089541
:101580000F931F93CF93DF938C0181E090E00E9433
:10159000960D80FF31C08AE090E00E94960D9FEF8B
:1015A000980F9E3F48F522E330E0D80150963C93D7
:1015B0002E931F9728E330E052963C932E93519739
:1015C000CBE0D0E0D801ED91FC910190F081E02DCD
:1015D000682FC8010995CE010E94960D2196C13150
:1015E000D10581F70E94610A88EE93E0DF91CF91E7
:1015F0001F910F910C946309DF91CF911F910F916F
:10160000089504970C94C00ACF93DF93CDB7DEB74B
:1016100060970FB6F894DEBF0FBECDBF789483E01D
:1016200084BD83E085BD81E080936E00E1E8F0E059
:1016300083E08083E0E881E08083E3EC81E08083E5
:10164000E2EC81E08083EAE787E080838068808342
:1016500010925A0110925401109253018091D700B8
:1016600081608093D70080EA8093D80089B580613B
:1016700089BD89B5826089BD09B400FEFDCF61E0F6
:1016800070E080E090E00E94C6088091D8008F7CD6
:1016900080618093D8008091E000807F8093E0009B
:1016A0008091E1008E7E8093E1008DE08093E200E6
:1016B000559A209AEEEFFFE7859194918B3F9C4DD0
:1016C00019F481E08093520181EC80937C0085B114
:1016D000806F85B984B1877E84B984B1876E84B9FF
:1016E0005E9A5F988AB1806D8AB9769A6E9881B356
:1016F000806F81BB899880B38D7080BB80E58CBD85
:1017000081E08DBD85E090E00E9463095F9A85E0ED
:1017100090E00E9463095E985C98E9E2F6E08DE053
:101720008E0F94919EBD00000DB407FEFDCF319643
:101730008E13F7CF5C9A81E88093640080916500F6
:101740008160809365000E94BB0787FF24C05C987E
:1017500085EA8EBD00000DB407FEFDCF5C9A2E9881
:101760002F982D988091640080628093640081E0BE
:1017700083BF889513BEFCCF2D980E94BB07847849
:10178000843871F00E94BB078471843129F188ECA0
:1017900090E00E9463090E94BB0782FDEDCF38C034
:1017A0002D9A88EC90E00E9463092F9882E090E0E7
:1017B0000E94960D8F3F29F06FEF82E090E00E942B
:1017C0009E0D84EF91E00E9463092F9A0E94BB074F
:1017D00084788438D9F3D6CF2D9A88EC90E00E9493
:1017E00063092E9882E090E00E94960D882329F0EC
:1017F00060E082E090E00E949E0D84EF91E00E9404
:1018000063092E9A0E94BB0784718431D9F3BFCF3C
:101810002D9A8FB7F89440915501509156016091DF
:101820005701709158018FBF8091B705942F981B75
:101830008091B805882329F09093B9051092B805D6
:101840003CC12091B605921748F49F5F921708F0AB
:1018500034C181E083BF889513BE2FC111E010937E
:10186000B8054093B7052091B2053091B3052F5FBD
:101870003F4F3093B3052093B205EBE5F1E08111C2
:101880008FEF002481938193819381930394D1F707
:101890001092BD051092BC051092BB051092BA05BE
:1018A0008091B4058093B5050E94BB078093B40571
:1018B0008091B2059091B30564E170E00E94CE0D75
:1018C000892B51F480910C018F5F813219F0809344
:1018D0000C0102C010930C01E6E3F6E0F491FD83E5
:1018E00020910C0136EF320360011124260140E4FF
:1018F000440E511C052C000C6608770850E2C50EFA
:10190000D11C0D2C000CEE08FF08C301B2010E948F
:10191000F0098CE20E94E509C701B6010E94F009B6
:101920008AE30E94E5093D81232F30E03F832E8327
:101930001A821982212C312CA12CB12C29813A81B7
:101940002E5F3F4F3C872B872D81A21608F093C056
:10195000EB85FC85EA0DFB1DEA5CF94F5491588735
:1019600020E030E081E090E0022E01C0880F0A9470
:10197000EAF75885852369F42F5F3F4F28303105FA
:1019800089F78AE391E00E94CD095FEFA51AB50AB5
:10199000DBCF00910C0110E0209EA001219E500D94
:1019A000309E500D112483E0440F551F8A95E1F7B6
:1019B000052E000C660B770B4C0D5D1D6E1D7F1DFB
:1019C000209FC001219F900D309F900D1124092E62
:1019D000000CAA0BBB0B840F951FA61FB71F9C837F
:1019E0008B83A09EC001A19E900DB09E900D1124EE
:1019F000092E000CAA0BBB0B840D951DA61DB71D4F
:101A0000988B8F87800F911F9A878987EB81FC8144
:101A10000E0F1F1FEF85F88949855A85E417F507D2
:101A20000CF0AACF8B809C8097FE18C0812C912C43
:101A300015C088169906CCF44F8558894038510551
:101A400050F441E0B4018F8598892D873E870E942C
:101A5000C3073E852D855FEF851A950AC8010134BD
:101A600011053CF380E490E0E4CF8F8598890196DE
:101A7000988B8F87CFCF8AE391E00E94CD098CE3CA
:101A800091E00E94CD093FEF231A330A29813A8160
:101A90004E815F81240F351F3A83298353E0251639
:101AA000310409F049CF8FE391E00E94CD098CE326
:101AB00091E00E94CD090E94610A40E050E0452B70
:101AC00009F4A7CE0E940000A4CEEBE5F5E0138256
:101AD000128288EE93E0A0E0B0E084839583A68331
:101AE000B78388E191E0918380838FEF9FEF9587A3
:101AF0008487EBEAF5E0138212821186128680E178
:101B000083871086178215868AE291E0918380830D
:101B100088E391E095838483108A1786128A118A5C
:101B200081E0838B148A858B168A0895F999FECFFC
:101B300092BD81BDF89A992780B50895262FF9990D
:101B4000FECF1FBA92BD81BD20BD0FB6F894FA9AA0
:101B5000F99A0FBE01960895A1E21A2EAA1BBB1B8B
:101B6000FD010DC0AA1FBB1FEE1FFF1FA217B30769
:101B7000E407F50720F0A21BB30BE40BF50B661F7F
:101B8000771F881F991F1A9469F760957095809543
:101B900090959B01AC01BD01CF010895AA1BBB1B11
:101BA00051E107C0AA1FBB1FA617B70710F0A61B5D
:101BB000B70B881F991F5A95A9F780959095BC017E
:101BC000CD010895EE0FFF1F0590F491E02D0994CB
:0E1BD00081E090E0F8940C94ED0DF894FFCFB6
:101BDE00FFFFFFFF00E10000000000000100C180D8
:101BEE0081000000000000004704DE08D3045D04FD
:101BFE006804D704F50400000000DB071C0484040D
:101C0E008304C00AFCFF0000010B20000D0A002D0A
:041C1E002D2D2D003B
:00000001FF
